{
	"data": {
		"bytecode": {
			"linkReferences": {},
			"object": "608060405234801561000f575f80fd5b5060405161187f38038061187f83398181016040528101906100319190610417565b3360025f6101000a81548173ffffffffffffffffffffffffffffffffffffffff021916908373ffffffffffffffffffffffffffffffffffffffff16021790555060015f8060025f9054906101000a900473ffffffffffffffffffffffffffffffffffffffff1673ffffffffffffffffffffffffffffffffffffffff1673ffffffffffffffffffffffffffffffffffffffff1681526020019081526020015f205f01819055505f805f60025f9054906101000a900473ffffffffffffffffffffffffffffffffffffffff1673ffffffffffffffffffffffffffffffffffffffff1673ffffffffffffffffffffffffffffffffffffffff1681526020019081526020015f206001015f6101000a81548160ff0219169083151502179055505f5b81518110156101e1575f60405180604001604052808484815181106101775761017661045e565b5b602002602001015181526020015f8152509050600181908060018154018082558091505060019003905f5260205f2090600202015f909190919091505f820151815f0190816101c69190610698565b5060208201518160010155505050808060010191505061014f565b5050610767565b5f604051905090565b5f80fd5b5f80fd5b5f80fd5b5f601f19601f8301169050919050565b7f4e487b71000000000000000000000000000000000000000000000000000000005f52604160045260245ffd5b610243826101fd565b810181811067ffffffffffffffff821117156102625761026161020d565b5b80604052505050565b5f6102746101e8565b9050610280828261023a565b919050565b5f67ffffffffffffffff82111561029f5761029e61020d565b5b602082029050602081019050919050565b5f80fd5b5f80fd5b5f67ffffffffffffffff8211156102d2576102d161020d565b5b6102db826101fd565b9050602081019050919050565b8281835e5f83830152505050565b5f610308610303846102b8565b61026b565b905082815260208101848484011115610324576103236102b4565b5b61032f8482856102e8565b509392505050565b5f82601f83011261034b5761034a6101f9565b5b815161035b8482602086016102f6565b91505092915050565b5f61037661037184610285565b61026b565b90508083825260208201905060208402830185811115610399576103986102b0565b5b835b818110156103e057805167ffffffffffffffff8111156103be576103bd6101f9565b5b8086016103cb8982610337565b8552602085019450505060208101905061039b565b5050509392505050565b5f82601f8301126103fe576103fd6101f9565b5b815161040e848260208601610364565b91505092915050565b5f6020828403121561042c5761042b6101f1565b5b5f82015167ffffffffffffffff811115610449576104486101f5565b5b610455848285016103ea565b91505092915050565b7f4e487b71000000000000000000000000000000000000000000000000000000005f52603260045260245ffd5b5f81519050919050565b7f4e487b71000000000000000000000000000000000000000000000000000000005f52602260045260245ffd5b5f60028204905060018216806104d957607f821691505b6020821081036104ec576104eb610495565b5b50919050565b5f819050815f5260205f209050919050565b5f6020601f8301049050919050565b5f82821b905092915050565b5f6008830261054e7fffffffffffffffffffffffffffffffffffffffffffffffffffffffffffffffff82610513565b6105588683610513565b95508019841693508086168417925050509392505050565b5f819050919050565b5f819050919050565b5f61059c61059761059284610570565b610579565b610570565b9050919050565b5f819050919050565b6105b583610582565b6105c96105c1826105a3565b84845461051f565b825550505050565b5f90565b6105dd6105d1565b6105e88184846105ac565b505050565b5b8181101561060b576106005f826105d5565b6001810190506105ee565b5050565b601f82111561065057610621816104f2565b61062a84610504565b81016020851015610639578190505b61064d61064585610504565b8301826105ed565b50505b505050565b5f82821c905092915050565b5f6106705f1984600802610655565b1980831691505092915050565b5f6106888383610661565b9150826002028217905092915050565b6106a18261048b565b67ffffffffffffffff8111156106ba576106b961020d565b5b6106c482546104c2565b6106cf82828561060f565b5f60209050601f831160018114610700575f84156106ee578287015190505b6106f8858261067d565b86555061075f565b601f19841661070e866104f2565b5f5b8281101561073557848901518255600182019150602085019450602081019050610710565b86831015610752578489015161074e601f891682610661565b8355505b6001600288020188555050505b505050505050565b61110b806107745f395ff3fe608060405234801561000f575f80fd5b5060043610610060575f3560e01c80630121b93f146100645780635c19a95c146100805780638760c7611461009c578063a3ec138d146100b8578063ed34c6ee146100eb578063f437bc5914610109575b5f80fd5b61007e60048036038101906100799190610959565b610127565b005b61009a600480360381019061009591906109de565b61029b565b005b6100b660048036038101906100b19190610a6a565b61061c565b005b6100d260048036038101906100cd91906109de565b6107ad565b6040516100e29493929190610aed565b60405180910390f35b6100f3610804565b6040516101009190610ca4565b60405180910390f35b6101116108f9565b60405161011e9190610cc4565b60405180910390f35b5f805f3373ffffffffffffffffffffffffffffffffffffffff1673ffffffffffffffffffffffffffffffffffffffff1681526020019081526020015f2090505f1515816001015f9054906101000a900460ff161515146101bc576040517f08c379a00000000000000000000000000000000000000000000000000000000081526004016101b390610d5d565b60405180910390fd5b5f815f015403610201576040517f08c379a00000000000000000000000000000000000000000000000000000000081526004016101f890610dc5565b60405180910390fd5b6001816001015f6101000a81548160ff021916908315150217905550818160020181905550805f01546001838154811061023e5761023d610de3565b5b905f5260205f2090600202016001015f82825461025b9190610e3d565b925050819055507f71811a05f98c0d6a3ee4d373e7d62d53422d5baf858d802816efce275df7d3fa60405161028f90610eba565b60405180910390a15050565b5f805f3373ffffffffffffffffffffffffffffffffffffffff1673ffffffffffffffffffffffffffffffffffffffff1681526020019081526020015f209050806001015f9054906101000a900460ff161561032b576040517f08c379a000000000000000000000000000000000000000000000000000000000815260040161032290610f22565b60405180910390fd5b8173ffffffffffffffffffffffffffffffffffffffff163373ffffffffffffffffffffffffffffffffffffffff1603610399576040517f08c379a000000000000000000000000000000000000000000000000000000000815260040161039090610f8a565b60405180910390fd5b5b5f73ffffffffffffffffffffffffffffffffffffffff165f808473ffffffffffffffffffffffffffffffffffffffff1673ffffffffffffffffffffffffffffffffffffffff1681526020019081526020015f2060010160019054906101000a900473ffffffffffffffffffffffffffffffffffffffff1673ffffffffffffffffffffffffffffffffffffffff1614610501575f808373ffffffffffffffffffffffffffffffffffffffff1673ffffffffffffffffffffffffffffffffffffffff1681526020019081526020015f2060010160019054906101000a900473ffffffffffffffffffffffffffffffffffffffff1691503373ffffffffffffffffffffffffffffffffffffffff168273ffffffffffffffffffffffffffffffffffffffff16036104fc576040517f08c379a00000000000000000000000000000000000000000000000000000000081526004016104f390610ff2565b60405180910390fd5b61039a565b818160010160016101000a81548173ffffffffffffffffffffffffffffffffffffffff021916908373ffffffffffffffffffffffffffffffffffffffff1602179055506001816001015f6101000a81548160ff0219169083151502179055505f805f8473ffffffffffffffffffffffffffffffffffffffff1673ffffffffffffffffffffffffffffffffffffffff1681526020019081526020015f209050806001015f9054906101000a900460ff16156105fa57805f015460018260020154815481106105d1576105d0610de3565b5b905f5260205f2090600202016001015f8282546105ee9190610e3d565b92505081905550610617565b815f0154815f015f82825461060f9190610e3d565b925050819055505b505050565b60025f9054906101000a900473ffffffffffffffffffffffffffffffffffffffff1673ffffffffffffffffffffffffffffffffffffffff163373ffffffffffffffffffffffffffffffffffffffff16146106ab576040517f08c379a00000000000000000000000000000000000000000000000000000000081526004016106a29061105a565b60405180910390fd5b5f5b828290508110156107a8575f808484848181106106cd576106cc610de3565b5b90506020020160208101906106e291906109de565b73ffffffffffffffffffffffffffffffffffffffff1673ffffffffffffffffffffffffffffffffffffffff1681526020019081526020015f206001015f9054906101000a900460ff1661079b5760015f8085858581811061074657610745610de3565b5b905060200201602081019061075b91906109de565b73ffffffffffffffffffffffffffffffffffffffff1673ffffffffffffffffffffffffffffffffffffffff1681526020019081526020015f205f01819055505b80806001019150506106ad565b505050565b5f602052805f5260405f205f91509050805f015490806001015f9054906101000a900460ff16908060010160019054906101000a900473ffffffffffffffffffffffffffffffffffffffff16908060020154905084565b60606001805480602002602001604051908101604052809291908181526020015f905b828210156108f0578382905f5260205f2090600202016040518060400160405290815f82018054610857906110a5565b80601f0160208091040260200160405190810160405280929190818152602001828054610883906110a5565b80156108ce5780601f106108a5576101008083540402835291602001916108ce565b820191905f5260205f20905b8154815290600101906020018083116108b157829003601f168201915b5050505050815260200160018201548152505081526020019060010190610827565b50505050905090565b60025f9054906101000a900473ffffffffffffffffffffffffffffffffffffffff1681565b5f80fd5b5f80fd5b5f819050919050565b61093881610926565b8114610942575f80fd5b50565b5f813590506109538161092f565b92915050565b5f6020828403121561096e5761096d61091e565b5b5f61097b84828501610945565b91505092915050565b5f73ffffffffffffffffffffffffffffffffffffffff82169050919050565b5f6109ad82610984565b9050919050565b6109bd816109a3565b81146109c7575f80fd5b50565b5f813590506109d8816109b4565b92915050565b5f602082840312156109f3576109f261091e565b5b5f610a00848285016109ca565b91505092915050565b5f80fd5b5f80fd5b5f80fd5b5f8083601f840112610a2a57610a29610a09565b5b8235905067ffffffffffffffff811115610a4757610a46610a0d565b5b602083019150836020820283011115610a6357610a62610a11565b5b9250929050565b5f8060208385031215610a8057610a7f61091e565b5b5f83013567ffffffffffffffff811115610a9d57610a9c610922565b5b610aa985828601610a15565b92509250509250929050565b610abe81610926565b82525050565b5f8115159050919050565b610ad881610ac4565b82525050565b610ae7816109a3565b82525050565b5f608082019050610b005f830187610ab5565b610b0d6020830186610acf565b610b1a6040830185610ade565b610b276060830184610ab5565b95945050505050565b5f81519050919050565b5f82825260208201905092915050565b5f819050602082019050919050565b5f81519050919050565b5f82825260208201905092915050565b8281835e5f83830152505050565b5f601f19601f8301169050919050565b5f610b9b82610b59565b610ba58185610b63565b9350610bb5818560208601610b73565b610bbe81610b81565b840191505092915050565b610bd281610926565b82525050565b5f604083015f8301518482035f860152610bf28282610b91565b9150506020830151610c076020860182610bc9565b508091505092915050565b5f610c1d8383610bd8565b905092915050565b5f602082019050919050565b5f610c3b82610b30565b610c458185610b3a565b935083602082028501610c5785610b4a565b805f5b85811015610c925784840389528151610c738582610c12565b9450610c7e83610c25565b925060208a01995050600181019050610c5a565b50829750879550505050505092915050565b5f6020820190508181035f830152610cbc8184610c31565b905092915050565b5f602082019050610cd75f830184610ade565b92915050565b5f82825260208201905092915050565b7f596f7520616c726561647920766f7465642e20596f752063616e277420766f745f8201527f6520616761696e00000000000000000000000000000000000000000000000000602082015250565b5f610d47602783610cdd565b9150610d5282610ced565b604082019050919050565b5f6020820190508181035f830152610d7481610d3b565b9050919050565b7f596f752063616e206e6f7420766f7465000000000000000000000000000000005f82015250565b5f610daf601083610cdd565b9150610dba82610d7b565b602082019050919050565b5f6020820190508181035f830152610ddc81610da3565b9050919050565b7f4e487b71000000000000000000000000000000000000000000000000000000005f52603260045260245ffd5b7f4e487b71000000000000000000000000000000000000000000000000000000005f52601160045260245ffd5b5f610e4782610926565b9150610e5283610926565b9250828201905080821115610e6a57610e69610e10565b5b92915050565b7f566f7465207375636365737366756c6c790000000000000000000000000000005f82015250565b5f610ea4601183610cdd565b9150610eaf82610e70565b602082019050919050565b5f6020820190508181035f830152610ed181610e98565b9050919050565b7f596f7520616c726561647920766f7465640000000000000000000000000000005f82015250565b5f610f0c601183610cdd565b9150610f1782610ed8565b602082019050919050565b5f6020820190508181035f830152610f3981610f00565b9050919050565b7f43616e27742064656c656761746520746f20796f757273656c660000000000005f82015250565b5f610f74601a83610cdd565b9150610f7f82610f40565b602082019050919050565b5f6020820190508181035f830152610fa181610f68565b9050919050565b7f4e6f6e2d6379636c696320617574686f72697a6174696f6e00000000000000005f82015250565b5f610fdc601883610cdd565b9150610fe782610fa8565b602082019050919050565b5f6020820190508181035f83015261100981610fd0565b9050919050565b7f596f7520646f6e27742068617665207065726d697373696f6e2e0000000000005f82015250565b5f611044601a83610cdd565b915061104f82611010565b602082019050919050565b5f6020820190508181035f83015261107181611038565b9050919050565b7f4e487b71000000000000000000000000000000000000000000000000000000005f52602260045260245ffd5b5f60028204905060018216806110bc57607f821691505b6020821081036110cf576110ce611078565b5b5091905056fea2646970667358221220cdfa294226e74f9ef4aa8dc21c9939f457ccd9c344496a55c2306938ddd94d2c64736f6c634300081a0033",
			"opcodes": "PUSH1 0x80 PUSH1 0x40 MSTORE CALLVALUE DUP1 ISZERO PUSH2 0xF JUMPI PUSH0 DUP1 REVERT JUMPDEST POP PUSH1 0x40 MLOAD PUSH2 0x187F CODESIZE SUB DUP1 PUSH2 0x187F DUP4 CODECOPY DUP2 DUP2 ADD PUSH1 0x40 MSTORE DUP2 ADD SWAP1 PUSH2 0x31 SWAP2 SWAP1 PUSH2 0x417 JUMP JUMPDEST CALLER PUSH1 0x2 PUSH0 PUSH2 0x100 EXP DUP2 SLOAD DUP2 PUSH20 0xFFFFFFFFFFFFFFFFFFFFFFFFFFFFFFFFFFFFFFFF MUL NOT AND SWAP1 DUP4 PUSH20 0xFFFFFFFFFFFFFFFFFFFFFFFFFFFFFFFFFFFFFFFF AND MUL OR SWAP1 SSTORE POP PUSH1 0x1 PUSH0 DUP1 PUSH1 0x2 PUSH0 SWAP1 SLOAD SWAP1 PUSH2 0x100 EXP SWAP1 DIV PUSH20 0xFFFFFFFFFFFFFFFFFFFFFFFFFFFFFFFFFFFFFFFF AND PUSH20 0xFFFFFFFFFFFFFFFFFFFFFFFFFFFFFFFFFFFFFFFF AND PUSH20 0xFFFFFFFFFFFFFFFFFFFFFFFFFFFFFFFFFFFFFFFF AND DUP2 MSTORE PUSH1 0x20 ADD SWAP1 DUP2 MSTORE PUSH1 0x20 ADD PUSH0 KECCAK256 PUSH0 ADD DUP2 SWAP1 SSTORE POP PUSH0 DUP1 PUSH0 PUSH1 0x2 PUSH0 SWAP1 SLOAD SWAP1 PUSH2 0x100 EXP SWAP1 DIV PUSH20 0xFFFFFFFFFFFFFFFFFFFFFFFFFFFFFFFFFFFFFFFF AND PUSH20 0xFFFFFFFFFFFFFFFFFFFFFFFFFFFFFFFFFFFFFFFF AND PUSH20 0xFFFFFFFFFFFFFFFFFFFFFFFFFFFFFFFFFFFFFFFF AND DUP2 MSTORE PUSH1 0x20 ADD SWAP1 DUP2 MSTORE PUSH1 0x20 ADD PUSH0 KECCAK256 PUSH1 0x1 ADD PUSH0 PUSH2 0x100 EXP DUP2 SLOAD DUP2 PUSH1 0xFF MUL NOT AND SWAP1 DUP4 ISZERO ISZERO MUL OR SWAP1 SSTORE POP PUSH0 JUMPDEST DUP2 MLOAD DUP2 LT ISZERO PUSH2 0x1E1 JUMPI PUSH0 PUSH1 0x40 MLOAD DUP1 PUSH1 0x40 ADD PUSH1 0x40 MSTORE DUP1 DUP5 DUP5 DUP2 MLOAD DUP2 LT PUSH2 0x177 JUMPI PUSH2 0x176 PUSH2 0x45E JUMP JUMPDEST JUMPDEST PUSH1 0x20 MUL PUSH1 0x20 ADD ADD MLOAD DUP2 MSTORE PUSH1 0x20 ADD PUSH0 DUP2 MSTORE POP SWAP1 POP PUSH1 0x1 DUP2 SWAP1 DUP1 PUSH1 0x1 DUP2 SLOAD ADD DUP1 DUP3 SSTORE DUP1 SWAP2 POP POP PUSH1 0x1 SWAP1 SUB SWAP1 PUSH0 MSTORE PUSH1 0x20 PUSH0 KECCAK256 SWAP1 PUSH1 0x2 MUL ADD PUSH0 SWAP1 SWAP2 SWAP1 SWAP2 SWAP1 SWAP2 POP PUSH0 DUP3 ADD MLOAD DUP2 PUSH0 ADD SWAP1 DUP2 PUSH2 0x1C6 SWAP2 SWAP1 PUSH2 0x698 JUMP JUMPDEST POP PUSH1 0x20 DUP3 ADD MLOAD DUP2 PUSH1 0x1 ADD SSTORE POP POP POP DUP1 DUP1 PUSH1 0x1 ADD SWAP2 POP POP PUSH2 0x14F JUMP JUMPDEST POP POP PUSH2 0x767 JUMP JUMPDEST PUSH0 PUSH1 0x40 MLOAD SWAP1 POP SWAP1 JUMP JUMPDEST PUSH0 DUP1 REVERT JUMPDEST PUSH0 DUP1 REVERT JUMPDEST PUSH0 DUP1 REVERT JUMPDEST PUSH0 PUSH1 0x1F NOT PUSH1 0x1F DUP4 ADD AND SWAP1 POP SWAP2 SWAP1 POP JUMP JUMPDEST PUSH32 0x4E487B7100000000000000000000000000000000000000000000000000000000 PUSH0 MSTORE PUSH1 0x41 PUSH1 0x4 MSTORE PUSH1 0x24 PUSH0 REVERT JUMPDEST PUSH2 0x243 DUP3 PUSH2 0x1FD JUMP JUMPDEST DUP2 ADD DUP2 DUP2 LT PUSH8 0xFFFFFFFFFFFFFFFF DUP3 GT OR ISZERO PUSH2 0x262 JUMPI PUSH2 0x261 PUSH2 0x20D JUMP JUMPDEST JUMPDEST DUP1 PUSH1 0x40 MSTORE POP POP POP JUMP JUMPDEST PUSH0 PUSH2 0x274 PUSH2 0x1E8 JUMP JUMPDEST SWAP1 POP PUSH2 0x280 DUP3 DUP3 PUSH2 0x23A JUMP JUMPDEST SWAP2 SWAP1 POP JUMP JUMPDEST PUSH0 PUSH8 0xFFFFFFFFFFFFFFFF DUP3 GT ISZERO PUSH2 0x29F JUMPI PUSH2 0x29E PUSH2 0x20D JUMP JUMPDEST JUMPDEST PUSH1 0x20 DUP3 MUL SWAP1 POP PUSH1 0x20 DUP2 ADD SWAP1 POP SWAP2 SWAP1 POP JUMP JUMPDEST PUSH0 DUP1 REVERT JUMPDEST PUSH0 DUP1 REVERT JUMPDEST PUSH0 PUSH8 0xFFFFFFFFFFFFFFFF DUP3 GT ISZERO PUSH2 0x2D2 JUMPI PUSH2 0x2D1 PUSH2 0x20D JUMP JUMPDEST JUMPDEST PUSH2 0x2DB DUP3 PUSH2 0x1FD JUMP JUMPDEST SWAP1 POP PUSH1 0x20 DUP2 ADD SWAP1 POP SWAP2 SWAP1 POP JUMP JUMPDEST DUP3 DUP2 DUP4 MCOPY PUSH0 DUP4 DUP4 ADD MSTORE POP POP POP JUMP JUMPDEST PUSH0 PUSH2 0x308 PUSH2 0x303 DUP5 PUSH2 0x2B8 JUMP JUMPDEST PUSH2 0x26B JUMP JUMPDEST SWAP1 POP DUP3 DUP2 MSTORE PUSH1 0x20 DUP2 ADD DUP5 DUP5 DUP5 ADD GT ISZERO PUSH2 0x324 JUMPI PUSH2 0x323 PUSH2 0x2B4 JUMP JUMPDEST JUMPDEST PUSH2 0x32F DUP5 DUP3 DUP6 PUSH2 0x2E8 JUMP JUMPDEST POP SWAP4 SWAP3 POP POP POP JUMP JUMPDEST PUSH0 DUP3 PUSH1 0x1F DUP4 ADD SLT PUSH2 0x34B JUMPI PUSH2 0x34A PUSH2 0x1F9 JUMP JUMPDEST JUMPDEST DUP2 MLOAD PUSH2 0x35B DUP5 DUP3 PUSH1 0x20 DUP7 ADD PUSH2 0x2F6 JUMP JUMPDEST SWAP2 POP POP SWAP3 SWAP2 POP POP JUMP JUMPDEST PUSH0 PUSH2 0x376 PUSH2 0x371 DUP5 PUSH2 0x285 JUMP JUMPDEST PUSH2 0x26B JUMP JUMPDEST SWAP1 POP DUP1 DUP4 DUP3 MSTORE PUSH1 0x20 DUP3 ADD SWAP1 POP PUSH1 0x20 DUP5 MUL DUP4 ADD DUP6 DUP2 GT ISZERO PUSH2 0x399 JUMPI PUSH2 0x398 PUSH2 0x2B0 JUMP JUMPDEST JUMPDEST DUP4 JUMPDEST DUP2 DUP2 LT ISZERO PUSH2 0x3E0 JUMPI DUP1 MLOAD PUSH8 0xFFFFFFFFFFFFFFFF DUP2 GT ISZERO PUSH2 0x3BE JUMPI PUSH2 0x3BD PUSH2 0x1F9 JUMP JUMPDEST JUMPDEST DUP1 DUP7 ADD PUSH2 0x3CB DUP10 DUP3 PUSH2 0x337 JUMP JUMPDEST DUP6 MSTORE PUSH1 0x20 DUP6 ADD SWAP5 POP POP POP PUSH1 0x20 DUP2 ADD SWAP1 POP PUSH2 0x39B JUMP JUMPDEST POP POP POP SWAP4 SWAP3 POP POP POP JUMP JUMPDEST PUSH0 DUP3 PUSH1 0x1F DUP4 ADD SLT PUSH2 0x3FE JUMPI PUSH2 0x3FD PUSH2 0x1F9 JUMP JUMPDEST JUMPDEST DUP2 MLOAD PUSH2 0x40E DUP5 DUP3 PUSH1 0x20 DUP7 ADD PUSH2 0x364 JUMP JUMPDEST SWAP2 POP POP SWAP3 SWAP2 POP POP JUMP JUMPDEST PUSH0 PUSH1 0x20 DUP3 DUP5 SUB SLT ISZERO PUSH2 0x42C JUMPI PUSH2 0x42B PUSH2 0x1F1 JUMP JUMPDEST JUMPDEST PUSH0 DUP3 ADD MLOAD PUSH8 0xFFFFFFFFFFFFFFFF DUP2 GT ISZERO PUSH2 0x449 JUMPI PUSH2 0x448 PUSH2 0x1F5 JUMP JUMPDEST JUMPDEST PUSH2 0x455 DUP5 DUP3 DUP6 ADD PUSH2 0x3EA JUMP JUMPDEST SWAP2 POP POP SWAP3 SWAP2 POP POP JUMP JUMPDEST PUSH32 0x4E487B7100000000000000000000000000000000000000000000000000000000 PUSH0 MSTORE PUSH1 0x32 PUSH1 0x4 MSTORE PUSH1 0x24 PUSH0 REVERT JUMPDEST PUSH0 DUP2 MLOAD SWAP1 POP SWAP2 SWAP1 POP JUMP JUMPDEST PUSH32 0x4E487B7100000000000000000000000000000000000000000000000000000000 PUSH0 MSTORE PUSH1 0x22 PUSH1 0x4 MSTORE PUSH1 0x24 PUSH0 REVERT JUMPDEST PUSH0 PUSH1 0x2 DUP3 DIV SWAP1 POP PUSH1 0x1 DUP3 AND DUP1 PUSH2 0x4D9 JUMPI PUSH1 0x7F DUP3 AND SWAP2 POP JUMPDEST PUSH1 0x20 DUP3 LT DUP2 SUB PUSH2 0x4EC JUMPI PUSH2 0x4EB PUSH2 0x495 JUMP JUMPDEST JUMPDEST POP SWAP2 SWAP1 POP JUMP JUMPDEST PUSH0 DUP2 SWAP1 POP DUP2 PUSH0 MSTORE PUSH1 0x20 PUSH0 KECCAK256 SWAP1 POP SWAP2 SWAP1 POP JUMP JUMPDEST PUSH0 PUSH1 0x20 PUSH1 0x1F DUP4 ADD DIV SWAP1 POP SWAP2 SWAP1 POP JUMP JUMPDEST PUSH0 DUP3 DUP3 SHL SWAP1 POP SWAP3 SWAP2 POP POP JUMP JUMPDEST PUSH0 PUSH1 0x8 DUP4 MUL PUSH2 0x54E PUSH32 0xFFFFFFFFFFFFFFFFFFFFFFFFFFFFFFFFFFFFFFFFFFFFFFFFFFFFFFFFFFFFFFFF DUP3 PUSH2 0x513 JUMP JUMPDEST PUSH2 0x558 DUP7 DUP4 PUSH2 0x513 JUMP JUMPDEST SWAP6 POP DUP1 NOT DUP5 AND SWAP4 POP DUP1 DUP7 AND DUP5 OR SWAP3 POP POP POP SWAP4 SWAP3 POP POP POP JUMP JUMPDEST PUSH0 DUP2 SWAP1 POP SWAP2 SWAP1 POP JUMP JUMPDEST PUSH0 DUP2 SWAP1 POP SWAP2 SWAP1 POP JUMP JUMPDEST PUSH0 PUSH2 0x59C PUSH2 0x597 PUSH2 0x592 DUP5 PUSH2 0x570 JUMP JUMPDEST PUSH2 0x579 JUMP JUMPDEST PUSH2 0x570 JUMP JUMPDEST SWAP1 POP SWAP2 SWAP1 POP JUMP JUMPDEST PUSH0 DUP2 SWAP1 POP SWAP2 SWAP1 POP JUMP JUMPDEST PUSH2 0x5B5 DUP4 PUSH2 0x582 JUMP JUMPDEST PUSH2 0x5C9 PUSH2 0x5C1 DUP3 PUSH2 0x5A3 JUMP JUMPDEST DUP5 DUP5 SLOAD PUSH2 0x51F JUMP JUMPDEST DUP3 SSTORE POP POP POP POP JUMP JUMPDEST PUSH0 SWAP1 JUMP JUMPDEST PUSH2 0x5DD PUSH2 0x5D1 JUMP JUMPDEST PUSH2 0x5E8 DUP2 DUP5 DUP5 PUSH2 0x5AC JUMP JUMPDEST POP POP POP JUMP JUMPDEST JUMPDEST DUP2 DUP2 LT ISZERO PUSH2 0x60B JUMPI PUSH2 0x600 PUSH0 DUP3 PUSH2 0x5D5 JUMP JUMPDEST PUSH1 0x1 DUP2 ADD SWAP1 POP PUSH2 0x5EE JUMP JUMPDEST POP POP JUMP JUMPDEST PUSH1 0x1F DUP3 GT ISZERO PUSH2 0x650 JUMPI PUSH2 0x621 DUP2 PUSH2 0x4F2 JUMP JUMPDEST PUSH2 0x62A DUP5 PUSH2 0x504 JUMP JUMPDEST DUP2 ADD PUSH1 0x20 DUP6 LT ISZERO PUSH2 0x639 JUMPI DUP2 SWAP1 POP JUMPDEST PUSH2 0x64D PUSH2 0x645 DUP6 PUSH2 0x504 JUMP JUMPDEST DUP4 ADD DUP3 PUSH2 0x5ED JUMP JUMPDEST POP POP JUMPDEST POP POP POP JUMP JUMPDEST PUSH0 DUP3 DUP3 SHR SWAP1 POP SWAP3 SWAP2 POP POP JUMP JUMPDEST PUSH0 PUSH2 0x670 PUSH0 NOT DUP5 PUSH1 0x8 MUL PUSH2 0x655 JUMP JUMPDEST NOT DUP1 DUP4 AND SWAP2 POP POP SWAP3 SWAP2 POP POP JUMP JUMPDEST PUSH0 PUSH2 0x688 DUP4 DUP4 PUSH2 0x661 JUMP JUMPDEST SWAP2 POP DUP3 PUSH1 0x2 MUL DUP3 OR SWAP1 POP SWAP3 SWAP2 POP POP JUMP JUMPDEST PUSH2 0x6A1 DUP3 PUSH2 0x48B JUMP JUMPDEST PUSH8 0xFFFFFFFFFFFFFFFF DUP2 GT ISZERO PUSH2 0x6BA JUMPI PUSH2 0x6B9 PUSH2 0x20D JUMP JUMPDEST JUMPDEST PUSH2 0x6C4 DUP3 SLOAD PUSH2 0x4C2 JUMP JUMPDEST PUSH2 0x6CF DUP3 DUP3 DUP6 PUSH2 0x60F JUMP JUMPDEST PUSH0 PUSH1 0x20 SWAP1 POP PUSH1 0x1F DUP4 GT PUSH1 0x1 DUP2 EQ PUSH2 0x700 JUMPI PUSH0 DUP5 ISZERO PUSH2 0x6EE JUMPI DUP3 DUP8 ADD MLOAD SWAP1 POP JUMPDEST PUSH2 0x6F8 DUP6 DUP3 PUSH2 0x67D JUMP JUMPDEST DUP7 SSTORE POP PUSH2 0x75F JUMP JUMPDEST PUSH1 0x1F NOT DUP5 AND PUSH2 0x70E DUP7 PUSH2 0x4F2 JUMP JUMPDEST PUSH0 JUMPDEST DUP3 DUP2 LT ISZERO PUSH2 0x735 JUMPI DUP5 DUP10 ADD MLOAD DUP3 SSTORE PUSH1 0x1 DUP3 ADD SWAP2 POP PUSH1 0x20 DUP6 ADD SWAP5 POP PUSH1 0x20 DUP2 ADD SWAP1 POP PUSH2 0x710 JUMP JUMPDEST DUP7 DUP4 LT ISZERO PUSH2 0x752 JUMPI DUP5 DUP10 ADD MLOAD PUSH2 0x74E PUSH1 0x1F DUP10 AND DUP3 PUSH2 0x661 JUMP JUMPDEST DUP4 SSTORE POP JUMPDEST PUSH1 0x1 PUSH1 0x2 DUP9 MUL ADD DUP9 SSTORE POP POP POP JUMPDEST POP POP POP POP POP POP JUMP JUMPDEST PUSH2 0x110B DUP1 PUSH2 0x774 PUSH0 CODECOPY PUSH0 RETURN INVALID PUSH1 0x80 PUSH1 0x40 MSTORE CALLVALUE DUP1 ISZERO PUSH2 0xF JUMPI PUSH0 DUP1 REVERT JUMPDEST POP PUSH1 0x4 CALLDATASIZE LT PUSH2 0x60 JUMPI PUSH0 CALLDATALOAD PUSH1 0xE0 SHR DUP1 PUSH4 0x121B93F EQ PUSH2 0x64 JUMPI DUP1 PUSH4 0x5C19A95C EQ PUSH2 0x80 JUMPI DUP1 PUSH4 0x8760C761 EQ PUSH2 0x9C JUMPI DUP1 PUSH4 0xA3EC138D EQ PUSH2 0xB8 JUMPI DUP1 PUSH4 0xED34C6EE EQ PUSH2 0xEB JUMPI DUP1 PUSH4 0xF437BC59 EQ PUSH2 0x109 JUMPI JUMPDEST PUSH0 DUP1 REVERT JUMPDEST PUSH2 0x7E PUSH1 0x4 DUP1 CALLDATASIZE SUB DUP2 ADD SWAP1 PUSH2 0x79 SWAP2 SWAP1 PUSH2 0x959 JUMP JUMPDEST PUSH2 0x127 JUMP JUMPDEST STOP JUMPDEST PUSH2 0x9A PUSH1 0x4 DUP1 CALLDATASIZE SUB DUP2 ADD SWAP1 PUSH2 0x95 SWAP2 SWAP1 PUSH2 0x9DE JUMP JUMPDEST PUSH2 0x29B JUMP JUMPDEST STOP JUMPDEST PUSH2 0xB6 PUSH1 0x4 DUP1 CALLDATASIZE SUB DUP2 ADD SWAP1 PUSH2 0xB1 SWAP2 SWAP1 PUSH2 0xA6A JUMP JUMPDEST PUSH2 0x61C JUMP JUMPDEST STOP JUMPDEST PUSH2 0xD2 PUSH1 0x4 DUP1 CALLDATASIZE SUB DUP2 ADD SWAP1 PUSH2 0xCD SWAP2 SWAP1 PUSH2 0x9DE JUMP JUMPDEST PUSH2 0x7AD JUMP JUMPDEST PUSH1 0x40 MLOAD PUSH2 0xE2 SWAP5 SWAP4 SWAP3 SWAP2 SWAP1 PUSH2 0xAED JUMP JUMPDEST PUSH1 0x40 MLOAD DUP1 SWAP2 SUB SWAP1 RETURN JUMPDEST PUSH2 0xF3 PUSH2 0x804 JUMP JUMPDEST PUSH1 0x40 MLOAD PUSH2 0x100 SWAP2 SWAP1 PUSH2 0xCA4 JUMP JUMPDEST PUSH1 0x40 MLOAD DUP1 SWAP2 SUB SWAP1 RETURN JUMPDEST PUSH2 0x111 PUSH2 0x8F9 JUMP JUMPDEST PUSH1 0x40 MLOAD PUSH2 0x11E SWAP2 SWAP1 PUSH2 0xCC4 JUMP JUMPDEST PUSH1 0x40 MLOAD DUP1 SWAP2 SUB SWAP1 RETURN JUMPDEST PUSH0 DUP1 PUSH0 CALLER PUSH20 0xFFFFFFFFFFFFFFFFFFFFFFFFFFFFFFFFFFFFFFFF AND PUSH20 0xFFFFFFFFFFFFFFFFFFFFFFFFFFFFFFFFFFFFFFFF AND DUP2 MSTORE PUSH1 0x20 ADD SWAP1 DUP2 MSTORE PUSH1 0x20 ADD PUSH0 KECCAK256 SWAP1 POP PUSH0 ISZERO ISZERO DUP2 PUSH1 0x1 ADD PUSH0 SWAP1 SLOAD SWAP1 PUSH2 0x100 EXP SWAP1 DIV PUSH1 0xFF AND ISZERO ISZERO EQ PUSH2 0x1BC JUMPI PUSH1 0x40 MLOAD PUSH32 0x8C379A000000000000000000000000000000000000000000000000000000000 DUP2 MSTORE PUSH1 0x4 ADD PUSH2 0x1B3 SWAP1 PUSH2 0xD5D JUMP JUMPDEST PUSH1 0x40 MLOAD DUP1 SWAP2 SUB SWAP1 REVERT JUMPDEST PUSH0 DUP2 PUSH0 ADD SLOAD SUB PUSH2 0x201 JUMPI PUSH1 0x40 MLOAD PUSH32 0x8C379A000000000000000000000000000000000000000000000000000000000 DUP2 MSTORE PUSH1 0x4 ADD PUSH2 0x1F8 SWAP1 PUSH2 0xDC5 JUMP JUMPDEST PUSH1 0x40 MLOAD DUP1 SWAP2 SUB SWAP1 REVERT JUMPDEST PUSH1 0x1 DUP2 PUSH1 0x1 ADD PUSH0 PUSH2 0x100 EXP DUP2 SLOAD DUP2 PUSH1 0xFF MUL NOT AND SWAP1 DUP4 ISZERO ISZERO MUL OR SWAP1 SSTORE POP DUP2 DUP2 PUSH1 0x2 ADD DUP2 SWAP1 SSTORE POP DUP1 PUSH0 ADD SLOAD PUSH1 0x1 DUP4 DUP2 SLOAD DUP2 LT PUSH2 0x23E JUMPI PUSH2 0x23D PUSH2 0xDE3 JUMP JUMPDEST JUMPDEST SWAP1 PUSH0 MSTORE PUSH1 0x20 PUSH0 KECCAK256 SWAP1 PUSH1 0x2 MUL ADD PUSH1 0x1 ADD PUSH0 DUP3 DUP3 SLOAD PUSH2 0x25B SWAP2 SWAP1 PUSH2 0xE3D JUMP JUMPDEST SWAP3 POP POP DUP2 SWAP1 SSTORE POP PUSH32 0x71811A05F98C0D6A3EE4D373E7D62D53422D5BAF858D802816EFCE275DF7D3FA PUSH1 0x40 MLOAD PUSH2 0x28F SWAP1 PUSH2 0xEBA JUMP JUMPDEST PUSH1 0x40 MLOAD DUP1 SWAP2 SUB SWAP1 LOG1 POP POP JUMP JUMPDEST PUSH0 DUP1 PUSH0 CALLER PUSH20 0xFFFFFFFFFFFFFFFFFFFFFFFFFFFFFFFFFFFFFFFF AND PUSH20 0xFFFFFFFFFFFFFFFFFFFFFFFFFFFFFFFFFFFFFFFF AND DUP2 MSTORE PUSH1 0x20 ADD SWAP1 DUP2 MSTORE PUSH1 0x20 ADD PUSH0 KECCAK256 SWAP1 POP DUP1 PUSH1 0x1 ADD PUSH0 SWAP1 SLOAD SWAP1 PUSH2 0x100 EXP SWAP1 DIV PUSH1 0xFF AND ISZERO PUSH2 0x32B JUMPI PUSH1 0x40 MLOAD PUSH32 0x8C379A000000000000000000000000000000000000000000000000000000000 DUP2 MSTORE PUSH1 0x4 ADD PUSH2 0x322 SWAP1 PUSH2 0xF22 JUMP JUMPDEST PUSH1 0x40 MLOAD DUP1 SWAP2 SUB SWAP1 REVERT JUMPDEST DUP2 PUSH20 0xFFFFFFFFFFFFFFFFFFFFFFFFFFFFFFFFFFFFFFFF AND CALLER PUSH20 0xFFFFFFFFFFFFFFFFFFFFFFFFFFFFFFFFFFFFFFFF AND SUB PUSH2 0x399 JUMPI PUSH1 0x40 MLOAD PUSH32 0x8C379A000000000000000000000000000000000000000000000000000000000 DUP2 MSTORE PUSH1 0x4 ADD PUSH2 0x390 SWAP1 PUSH2 0xF8A JUMP JUMPDEST PUSH1 0x40 MLOAD DUP1 SWAP2 SUB SWAP1 REVERT JUMPDEST JUMPDEST PUSH0 PUSH20 0xFFFFFFFFFFFFFFFFFFFFFFFFFFFFFFFFFFFFFFFF AND PUSH0 DUP1 DUP5 PUSH20 0xFFFFFFFFFFFFFFFFFFFFFFFFFFFFFFFFFFFFFFFF AND PUSH20 0xFFFFFFFFFFFFFFFFFFFFFFFFFFFFFFFFFFFFFFFF AND DUP2 MSTORE PUSH1 0x20 ADD SWAP1 DUP2 MSTORE PUSH1 0x20 ADD PUSH0 KECCAK256 PUSH1 0x1 ADD PUSH1 0x1 SWAP1 SLOAD SWAP1 PUSH2 0x100 EXP SWAP1 DIV PUSH20 0xFFFFFFFFFFFFFFFFFFFFFFFFFFFFFFFFFFFFFFFF AND PUSH20 0xFFFFFFFFFFFFFFFFFFFFFFFFFFFFFFFFFFFFFFFF AND EQ PUSH2 0x501 JUMPI PUSH0 DUP1 DUP4 PUSH20 0xFFFFFFFFFFFFFFFFFFFFFFFFFFFFFFFFFFFFFFFF AND PUSH20 0xFFFFFFFFFFFFFFFFFFFFFFFFFFFFFFFFFFFFFFFF AND DUP2 MSTORE PUSH1 0x20 ADD SWAP1 DUP2 MSTORE PUSH1 0x20 ADD PUSH0 KECCAK256 PUSH1 0x1 ADD PUSH1 0x1 SWAP1 SLOAD SWAP1 PUSH2 0x100 EXP SWAP1 DIV PUSH20 0xFFFFFFFFFFFFFFFFFFFFFFFFFFFFFFFFFFFFFFFF AND SWAP2 POP CALLER PUSH20 0xFFFFFFFFFFFFFFFFFFFFFFFFFFFFFFFFFFFFFFFF AND DUP3 PUSH20 0xFFFFFFFFFFFFFFFFFFFFFFFFFFFFFFFFFFFFFFFF AND SUB PUSH2 0x4FC JUMPI PUSH1 0x40 MLOAD PUSH32 0x8C379A000000000000000000000000000000000000000000000000000000000 DUP2 MSTORE PUSH1 0x4 ADD PUSH2 0x4F3 SWAP1 PUSH2 0xFF2 JUMP JUMPDEST PUSH1 0x40 MLOAD DUP1 SWAP2 SUB SWAP1 REVERT JUMPDEST PUSH2 0x39A JUMP JUMPDEST DUP2 DUP2 PUSH1 0x1 ADD PUSH1 0x1 PUSH2 0x100 EXP DUP2 SLOAD DUP2 PUSH20 0xFFFFFFFFFFFFFFFFFFFFFFFFFFFFFFFFFFFFFFFF MUL NOT AND SWAP1 DUP4 PUSH20 0xFFFFFFFFFFFFFFFFFFFFFFFFFFFFFFFFFFFFFFFF AND MUL OR SWAP1 SSTORE POP PUSH1 0x1 DUP2 PUSH1 0x1 ADD PUSH0 PUSH2 0x100 EXP DUP2 SLOAD DUP2 PUSH1 0xFF MUL NOT AND SWAP1 DUP4 ISZERO ISZERO MUL OR SWAP1 SSTORE POP PUSH0 DUP1 PUSH0 DUP5 PUSH20 0xFFFFFFFFFFFFFFFFFFFFFFFFFFFFFFFFFFFFFFFF AND PUSH20 0xFFFFFFFFFFFFFFFFFFFFFFFFFFFFFFFFFFFFFFFF AND DUP2 MSTORE PUSH1 0x20 ADD SWAP1 DUP2 MSTORE PUSH1 0x20 ADD PUSH0 KECCAK256 SWAP1 POP DUP1 PUSH1 0x1 ADD PUSH0 SWAP1 SLOAD SWAP1 PUSH2 0x100 EXP SWAP1 DIV PUSH1 0xFF AND ISZERO PUSH2 0x5FA JUMPI DUP1 PUSH0 ADD SLOAD PUSH1 0x1 DUP3 PUSH1 0x2 ADD SLOAD DUP2 SLOAD DUP2 LT PUSH2 0x5D1 JUMPI PUSH2 0x5D0 PUSH2 0xDE3 JUMP JUMPDEST JUMPDEST SWAP1 PUSH0 MSTORE PUSH1 0x20 PUSH0 KECCAK256 SWAP1 PUSH1 0x2 MUL ADD PUSH1 0x1 ADD PUSH0 DUP3 DUP3 SLOAD PUSH2 0x5EE SWAP2 SWAP1 PUSH2 0xE3D JUMP JUMPDEST SWAP3 POP POP DUP2 SWAP1 SSTORE POP PUSH2 0x617 JUMP JUMPDEST DUP2 PUSH0 ADD SLOAD DUP2 PUSH0 ADD PUSH0 DUP3 DUP3 SLOAD PUSH2 0x60F SWAP2 SWAP1 PUSH2 0xE3D JUMP JUMPDEST SWAP3 POP POP DUP2 SWAP1 SSTORE POP JUMPDEST POP POP POP JUMP JUMPDEST PUSH1 0x2 PUSH0 SWAP1 SLOAD SWAP1 PUSH2 0x100 EXP SWAP1 DIV PUSH20 0xFFFFFFFFFFFFFFFFFFFFFFFFFFFFFFFFFFFFFFFF AND PUSH20 0xFFFFFFFFFFFFFFFFFFFFFFFFFFFFFFFFFFFFFFFF AND CALLER PUSH20 0xFFFFFFFFFFFFFFFFFFFFFFFFFFFFFFFFFFFFFFFF AND EQ PUSH2 0x6AB JUMPI PUSH1 0x40 MLOAD PUSH32 0x8C379A000000000000000000000000000000000000000000000000000000000 DUP2 MSTORE PUSH1 0x4 ADD PUSH2 0x6A2 SWAP1 PUSH2 0x105A JUMP JUMPDEST PUSH1 0x40 MLOAD DUP1 SWAP2 SUB SWAP1 REVERT JUMPDEST PUSH0 JUMPDEST DUP3 DUP3 SWAP1 POP DUP2 LT ISZERO PUSH2 0x7A8 JUMPI PUSH0 DUP1 DUP5 DUP5 DUP5 DUP2 DUP2 LT PUSH2 0x6CD JUMPI PUSH2 0x6CC PUSH2 0xDE3 JUMP JUMPDEST JUMPDEST SWAP1 POP PUSH1 0x20 MUL ADD PUSH1 0x20 DUP2 ADD SWAP1 PUSH2 0x6E2 SWAP2 SWAP1 PUSH2 0x9DE JUMP JUMPDEST PUSH20 0xFFFFFFFFFFFFFFFFFFFFFFFFFFFFFFFFFFFFFFFF AND PUSH20 0xFFFFFFFFFFFFFFFFFFFFFFFFFFFFFFFFFFFFFFFF AND DUP2 MSTORE PUSH1 0x20 ADD SWAP1 DUP2 MSTORE PUSH1 0x20 ADD PUSH0 KECCAK256 PUSH1 0x1 ADD PUSH0 SWAP1 SLOAD SWAP1 PUSH2 0x100 EXP SWAP1 DIV PUSH1 0xFF AND PUSH2 0x79B JUMPI PUSH1 0x1 PUSH0 DUP1 DUP6 DUP6 DUP6 DUP2 DUP2 LT PUSH2 0x746 JUMPI PUSH2 0x745 PUSH2 0xDE3 JUMP JUMPDEST JUMPDEST SWAP1 POP PUSH1 0x20 MUL ADD PUSH1 0x20 DUP2 ADD SWAP1 PUSH2 0x75B SWAP2 SWAP1 PUSH2 0x9DE JUMP JUMPDEST PUSH20 0xFFFFFFFFFFFFFFFFFFFFFFFFFFFFFFFFFFFFFFFF AND PUSH20 0xFFFFFFFFFFFFFFFFFFFFFFFFFFFFFFFFFFFFFFFF AND DUP2 MSTORE PUSH1 0x20 ADD SWAP1 DUP2 MSTORE PUSH1 0x20 ADD PUSH0 KECCAK256 PUSH0 ADD DUP2 SWAP1 SSTORE POP JUMPDEST DUP1 DUP1 PUSH1 0x1 ADD SWAP2 POP POP PUSH2 0x6AD JUMP JUMPDEST POP POP POP JUMP JUMPDEST PUSH0 PUSH1 0x20 MSTORE DUP1 PUSH0 MSTORE PUSH1 0x40 PUSH0 KECCAK256 PUSH0 SWAP2 POP SWAP1 POP DUP1 PUSH0 ADD SLOAD SWAP1 DUP1 PUSH1 0x1 ADD PUSH0 SWAP1 SLOAD SWAP1 PUSH2 0x100 EXP SWAP1 DIV PUSH1 0xFF AND SWAP1 DUP1 PUSH1 0x1 ADD PUSH1 0x1 SWAP1 SLOAD SWAP1 PUSH2 0x100 EXP SWAP1 DIV PUSH20 0xFFFFFFFFFFFFFFFFFFFFFFFFFFFFFFFFFFFFFFFF AND SWAP1 DUP1 PUSH1 0x2 ADD SLOAD SWAP1 POP DUP5 JUMP JUMPDEST PUSH1 0x60 PUSH1 0x1 DUP1 SLOAD DUP1 PUSH1 0x20 MUL PUSH1 0x20 ADD PUSH1 0x40 MLOAD SWAP1 DUP2 ADD PUSH1 0x40 MSTORE DUP1 SWAP3 SWAP2 SWAP1 DUP2 DUP2 MSTORE PUSH1 0x20 ADD PUSH0 SWAP1 JUMPDEST DUP3 DUP3 LT ISZERO PUSH2 0x8F0 JUMPI DUP4 DUP3 SWAP1 PUSH0 MSTORE PUSH1 0x20 PUSH0 KECCAK256 SWAP1 PUSH1 0x2 MUL ADD PUSH1 0x40 MLOAD DUP1 PUSH1 0x40 ADD PUSH1 0x40 MSTORE SWAP1 DUP2 PUSH0 DUP3 ADD DUP1 SLOAD PUSH2 0x857 SWAP1 PUSH2 0x10A5 JUMP JUMPDEST DUP1 PUSH1 0x1F ADD PUSH1 0x20 DUP1 SWAP2 DIV MUL PUSH1 0x20 ADD PUSH1 0x40 MLOAD SWAP1 DUP2 ADD PUSH1 0x40 MSTORE DUP1 SWAP3 SWAP2 SWAP1 DUP2 DUP2 MSTORE PUSH1 0x20 ADD DUP3 DUP1 SLOAD PUSH2 0x883 SWAP1 PUSH2 0x10A5 JUMP JUMPDEST DUP1 ISZERO PUSH2 0x8CE JUMPI DUP1 PUSH1 0x1F LT PUSH2 0x8A5 JUMPI PUSH2 0x100 DUP1 DUP4 SLOAD DIV MUL DUP4 MSTORE SWAP2 PUSH1 0x20 ADD SWAP2 PUSH2 0x8CE JUMP JUMPDEST DUP3 ADD SWAP2 SWAP1 PUSH0 MSTORE PUSH1 0x20 PUSH0 KECCAK256 SWAP1 JUMPDEST DUP2 SLOAD DUP2 MSTORE SWAP1 PUSH1 0x1 ADD SWAP1 PUSH1 0x20 ADD DUP1 DUP4 GT PUSH2 0x8B1 JUMPI DUP3 SWAP1 SUB PUSH1 0x1F AND DUP3 ADD SWAP2 JUMPDEST POP POP POP POP POP DUP2 MSTORE PUSH1 0x20 ADD PUSH1 0x1 DUP3 ADD SLOAD DUP2 MSTORE POP POP DUP2 MSTORE PUSH1 0x20 ADD SWAP1 PUSH1 0x1 ADD SWAP1 PUSH2 0x827 JUMP JUMPDEST POP POP POP POP SWAP1 POP SWAP1 JUMP JUMPDEST PUSH1 0x2 PUSH0 SWAP1 SLOAD SWAP1 PUSH2 0x100 EXP SWAP1 DIV PUSH20 0xFFFFFFFFFFFFFFFFFFFFFFFFFFFFFFFFFFFFFFFF AND DUP2 JUMP JUMPDEST PUSH0 DUP1 REVERT JUMPDEST PUSH0 DUP1 REVERT JUMPDEST PUSH0 DUP2 SWAP1 POP SWAP2 SWAP1 POP JUMP JUMPDEST PUSH2 0x938 DUP2 PUSH2 0x926 JUMP JUMPDEST DUP2 EQ PUSH2 0x942 JUMPI PUSH0 DUP1 REVERT JUMPDEST POP JUMP JUMPDEST PUSH0 DUP2 CALLDATALOAD SWAP1 POP PUSH2 0x953 DUP2 PUSH2 0x92F JUMP JUMPDEST SWAP3 SWAP2 POP POP JUMP JUMPDEST PUSH0 PUSH1 0x20 DUP3 DUP5 SUB SLT ISZERO PUSH2 0x96E JUMPI PUSH2 0x96D PUSH2 0x91E JUMP JUMPDEST JUMPDEST PUSH0 PUSH2 0x97B DUP5 DUP3 DUP6 ADD PUSH2 0x945 JUMP JUMPDEST SWAP2 POP POP SWAP3 SWAP2 POP POP JUMP JUMPDEST PUSH0 PUSH20 0xFFFFFFFFFFFFFFFFFFFFFFFFFFFFFFFFFFFFFFFF DUP3 AND SWAP1 POP SWAP2 SWAP1 POP JUMP JUMPDEST PUSH0 PUSH2 0x9AD DUP3 PUSH2 0x984 JUMP JUMPDEST SWAP1 POP SWAP2 SWAP1 POP JUMP JUMPDEST PUSH2 0x9BD DUP2 PUSH2 0x9A3 JUMP JUMPDEST DUP2 EQ PUSH2 0x9C7 JUMPI PUSH0 DUP1 REVERT JUMPDEST POP JUMP JUMPDEST PUSH0 DUP2 CALLDATALOAD SWAP1 POP PUSH2 0x9D8 DUP2 PUSH2 0x9B4 JUMP JUMPDEST SWAP3 SWAP2 POP POP JUMP JUMPDEST PUSH0 PUSH1 0x20 DUP3 DUP5 SUB SLT ISZERO PUSH2 0x9F3 JUMPI PUSH2 0x9F2 PUSH2 0x91E JUMP JUMPDEST JUMPDEST PUSH0 PUSH2 0xA00 DUP5 DUP3 DUP6 ADD PUSH2 0x9CA JUMP JUMPDEST SWAP2 POP POP SWAP3 SWAP2 POP POP JUMP JUMPDEST PUSH0 DUP1 REVERT JUMPDEST PUSH0 DUP1 REVERT JUMPDEST PUSH0 DUP1 REVERT JUMPDEST PUSH0 DUP1 DUP4 PUSH1 0x1F DUP5 ADD SLT PUSH2 0xA2A JUMPI PUSH2 0xA29 PUSH2 0xA09 JUMP JUMPDEST JUMPDEST DUP3 CALLDATALOAD SWAP1 POP PUSH8 0xFFFFFFFFFFFFFFFF DUP2 GT ISZERO PUSH2 0xA47 JUMPI PUSH2 0xA46 PUSH2 0xA0D JUMP JUMPDEST JUMPDEST PUSH1 0x20 DUP4 ADD SWAP2 POP DUP4 PUSH1 0x20 DUP3 MUL DUP4 ADD GT ISZERO PUSH2 0xA63 JUMPI PUSH2 0xA62 PUSH2 0xA11 JUMP JUMPDEST JUMPDEST SWAP3 POP SWAP3 SWAP1 POP JUMP JUMPDEST PUSH0 DUP1 PUSH1 0x20 DUP4 DUP6 SUB SLT ISZERO PUSH2 0xA80 JUMPI PUSH2 0xA7F PUSH2 0x91E JUMP JUMPDEST JUMPDEST PUSH0 DUP4 ADD CALLDATALOAD PUSH8 0xFFFFFFFFFFFFFFFF DUP2 GT ISZERO PUSH2 0xA9D JUMPI PUSH2 0xA9C PUSH2 0x922 JUMP JUMPDEST JUMPDEST PUSH2 0xAA9 DUP6 DUP3 DUP7 ADD PUSH2 0xA15 JUMP JUMPDEST SWAP3 POP SWAP3 POP POP SWAP3 POP SWAP3 SWAP1 POP JUMP JUMPDEST PUSH2 0xABE DUP2 PUSH2 0x926 JUMP JUMPDEST DUP3 MSTORE POP POP JUMP JUMPDEST PUSH0 DUP2 ISZERO ISZERO SWAP1 POP SWAP2 SWAP1 POP JUMP JUMPDEST PUSH2 0xAD8 DUP2 PUSH2 0xAC4 JUMP JUMPDEST DUP3 MSTORE POP POP JUMP JUMPDEST PUSH2 0xAE7 DUP2 PUSH2 0x9A3 JUMP JUMPDEST DUP3 MSTORE POP POP JUMP JUMPDEST PUSH0 PUSH1 0x80 DUP3 ADD SWAP1 POP PUSH2 0xB00 PUSH0 DUP4 ADD DUP8 PUSH2 0xAB5 JUMP JUMPDEST PUSH2 0xB0D PUSH1 0x20 DUP4 ADD DUP7 PUSH2 0xACF JUMP JUMPDEST PUSH2 0xB1A PUSH1 0x40 DUP4 ADD DUP6 PUSH2 0xADE JUMP JUMPDEST PUSH2 0xB27 PUSH1 0x60 DUP4 ADD DUP5 PUSH2 0xAB5 JUMP JUMPDEST SWAP6 SWAP5 POP POP POP POP POP JUMP JUMPDEST PUSH0 DUP2 MLOAD SWAP1 POP SWAP2 SWAP1 POP JUMP JUMPDEST PUSH0 DUP3 DUP3 MSTORE PUSH1 0x20 DUP3 ADD SWAP1 POP SWAP3 SWAP2 POP POP JUMP JUMPDEST PUSH0 DUP2 SWAP1 POP PUSH1 0x20 DUP3 ADD SWAP1 POP SWAP2 SWAP1 POP JUMP JUMPDEST PUSH0 DUP2 MLOAD SWAP1 POP SWAP2 SWAP1 POP JUMP JUMPDEST PUSH0 DUP3 DUP3 MSTORE PUSH1 0x20 DUP3 ADD SWAP1 POP SWAP3 SWAP2 POP POP JUMP JUMPDEST DUP3 DUP2 DUP4 MCOPY PUSH0 DUP4 DUP4 ADD MSTORE POP POP POP JUMP JUMPDEST PUSH0 PUSH1 0x1F NOT PUSH1 0x1F DUP4 ADD AND SWAP1 POP SWAP2 SWAP1 POP JUMP JUMPDEST PUSH0 PUSH2 0xB9B DUP3 PUSH2 0xB59 JUMP JUMPDEST PUSH2 0xBA5 DUP2 DUP6 PUSH2 0xB63 JUMP JUMPDEST SWAP4 POP PUSH2 0xBB5 DUP2 DUP6 PUSH1 0x20 DUP7 ADD PUSH2 0xB73 JUMP JUMPDEST PUSH2 0xBBE DUP2 PUSH2 0xB81 JUMP JUMPDEST DUP5 ADD SWAP2 POP POP SWAP3 SWAP2 POP POP JUMP JUMPDEST PUSH2 0xBD2 DUP2 PUSH2 0x926 JUMP JUMPDEST DUP3 MSTORE POP POP JUMP JUMPDEST PUSH0 PUSH1 0x40 DUP4 ADD PUSH0 DUP4 ADD MLOAD DUP5 DUP3 SUB PUSH0 DUP7 ADD MSTORE PUSH2 0xBF2 DUP3 DUP3 PUSH2 0xB91 JUMP JUMPDEST SWAP2 POP POP PUSH1 0x20 DUP4 ADD MLOAD PUSH2 0xC07 PUSH1 0x20 DUP7 ADD DUP3 PUSH2 0xBC9 JUMP JUMPDEST POP DUP1 SWAP2 POP POP SWAP3 SWAP2 POP POP JUMP JUMPDEST PUSH0 PUSH2 0xC1D DUP4 DUP4 PUSH2 0xBD8 JUMP JUMPDEST SWAP1 POP SWAP3 SWAP2 POP POP JUMP JUMPDEST PUSH0 PUSH1 0x20 DUP3 ADD SWAP1 POP SWAP2 SWAP1 POP JUMP JUMPDEST PUSH0 PUSH2 0xC3B DUP3 PUSH2 0xB30 JUMP JUMPDEST PUSH2 0xC45 DUP2 DUP6 PUSH2 0xB3A JUMP JUMPDEST SWAP4 POP DUP4 PUSH1 0x20 DUP3 MUL DUP6 ADD PUSH2 0xC57 DUP6 PUSH2 0xB4A JUMP JUMPDEST DUP1 PUSH0 JUMPDEST DUP6 DUP2 LT ISZERO PUSH2 0xC92 JUMPI DUP5 DUP5 SUB DUP10 MSTORE DUP2 MLOAD PUSH2 0xC73 DUP6 DUP3 PUSH2 0xC12 JUMP JUMPDEST SWAP5 POP PUSH2 0xC7E DUP4 PUSH2 0xC25 JUMP JUMPDEST SWAP3 POP PUSH1 0x20 DUP11 ADD SWAP10 POP POP PUSH1 0x1 DUP2 ADD SWAP1 POP PUSH2 0xC5A JUMP JUMPDEST POP DUP3 SWAP8 POP DUP8 SWAP6 POP POP POP POP POP POP SWAP3 SWAP2 POP POP JUMP JUMPDEST PUSH0 PUSH1 0x20 DUP3 ADD SWAP1 POP DUP2 DUP2 SUB PUSH0 DUP4 ADD MSTORE PUSH2 0xCBC DUP2 DUP5 PUSH2 0xC31 JUMP JUMPDEST SWAP1 POP SWAP3 SWAP2 POP POP JUMP JUMPDEST PUSH0 PUSH1 0x20 DUP3 ADD SWAP1 POP PUSH2 0xCD7 PUSH0 DUP4 ADD DUP5 PUSH2 0xADE JUMP JUMPDEST SWAP3 SWAP2 POP POP JUMP JUMPDEST PUSH0 DUP3 DUP3 MSTORE PUSH1 0x20 DUP3 ADD SWAP1 POP SWAP3 SWAP2 POP POP JUMP JUMPDEST PUSH32 0x596F7520616C726561647920766F7465642E20596F752063616E277420766F74 PUSH0 DUP3 ADD MSTORE PUSH32 0x6520616761696E00000000000000000000000000000000000000000000000000 PUSH1 0x20 DUP3 ADD MSTORE POP JUMP JUMPDEST PUSH0 PUSH2 0xD47 PUSH1 0x27 DUP4 PUSH2 0xCDD JUMP JUMPDEST SWAP2 POP PUSH2 0xD52 DUP3 PUSH2 0xCED JUMP JUMPDEST PUSH1 0x40 DUP3 ADD SWAP1 POP SWAP2 SWAP1 POP JUMP JUMPDEST PUSH0 PUSH1 0x20 DUP3 ADD SWAP1 POP DUP2 DUP2 SUB PUSH0 DUP4 ADD MSTORE PUSH2 0xD74 DUP2 PUSH2 0xD3B JUMP JUMPDEST SWAP1 POP SWAP2 SWAP1 POP JUMP JUMPDEST PUSH32 0x596F752063616E206E6F7420766F746500000000000000000000000000000000 PUSH0 DUP3 ADD MSTORE POP JUMP JUMPDEST PUSH0 PUSH2 0xDAF PUSH1 0x10 DUP4 PUSH2 0xCDD JUMP JUMPDEST SWAP2 POP PUSH2 0xDBA DUP3 PUSH2 0xD7B JUMP JUMPDEST PUSH1 0x20 DUP3 ADD SWAP1 POP SWAP2 SWAP1 POP JUMP JUMPDEST PUSH0 PUSH1 0x20 DUP3 ADD SWAP1 POP DUP2 DUP2 SUB PUSH0 DUP4 ADD MSTORE PUSH2 0xDDC DUP2 PUSH2 0xDA3 JUMP JUMPDEST SWAP1 POP SWAP2 SWAP1 POP JUMP JUMPDEST PUSH32 0x4E487B7100000000000000000000000000000000000000000000000000000000 PUSH0 MSTORE PUSH1 0x32 PUSH1 0x4 MSTORE PUSH1 0x24 PUSH0 REVERT JUMPDEST PUSH32 0x4E487B7100000000000000000000000000000000000000000000000000000000 PUSH0 MSTORE PUSH1 0x11 PUSH1 0x4 MSTORE PUSH1 0x24 PUSH0 REVERT JUMPDEST PUSH0 PUSH2 0xE47 DUP3 PUSH2 0x926 JUMP JUMPDEST SWAP2 POP PUSH2 0xE52 DUP4 PUSH2 0x926 JUMP JUMPDEST SWAP3 POP DUP3 DUP3 ADD SWAP1 POP DUP1 DUP3 GT ISZERO PUSH2 0xE6A JUMPI PUSH2 0xE69 PUSH2 0xE10 JUMP JUMPDEST JUMPDEST SWAP3 SWAP2 POP POP JUMP JUMPDEST PUSH32 0x566F7465207375636365737366756C6C79000000000000000000000000000000 PUSH0 DUP3 ADD MSTORE POP JUMP JUMPDEST PUSH0 PUSH2 0xEA4 PUSH1 0x11 DUP4 PUSH2 0xCDD JUMP JUMPDEST SWAP2 POP PUSH2 0xEAF DUP3 PUSH2 0xE70 JUMP JUMPDEST PUSH1 0x20 DUP3 ADD SWAP1 POP SWAP2 SWAP1 POP JUMP JUMPDEST PUSH0 PUSH1 0x20 DUP3 ADD SWAP1 POP DUP2 DUP2 SUB PUSH0 DUP4 ADD MSTORE PUSH2 0xED1 DUP2 PUSH2 0xE98 JUMP JUMPDEST SWAP1 POP SWAP2 SWAP1 POP JUMP JUMPDEST PUSH32 0x596F7520616C726561647920766F746564000000000000000000000000000000 PUSH0 DUP3 ADD MSTORE POP JUMP JUMPDEST PUSH0 PUSH2 0xF0C PUSH1 0x11 DUP4 PUSH2 0xCDD JUMP JUMPDEST SWAP2 POP PUSH2 0xF17 DUP3 PUSH2 0xED8 JUMP JUMPDEST PUSH1 0x20 DUP3 ADD SWAP1 POP SWAP2 SWAP1 POP JUMP JUMPDEST PUSH0 PUSH1 0x20 DUP3 ADD SWAP1 POP DUP2 DUP2 SUB PUSH0 DUP4 ADD MSTORE PUSH2 0xF39 DUP2 PUSH2 0xF00 JUMP JUMPDEST SWAP1 POP SWAP2 SWAP1 POP JUMP JUMPDEST PUSH32 0x43616E27742064656C656761746520746F20796F757273656C66000000000000 PUSH0 DUP3 ADD MSTORE POP JUMP JUMPDEST PUSH0 PUSH2 0xF74 PUSH1 0x1A DUP4 PUSH2 0xCDD JUMP JUMPDEST SWAP2 POP PUSH2 0xF7F DUP3 PUSH2 0xF40 JUMP JUMPDEST PUSH1 0x20 DUP3 ADD SWAP1 POP SWAP2 SWAP1 POP JUMP JUMPDEST PUSH0 PUSH1 0x20 DUP3 ADD SWAP1 POP DUP2 DUP2 SUB PUSH0 DUP4 ADD MSTORE PUSH2 0xFA1 DUP2 PUSH2 0xF68 JUMP JUMPDEST SWAP1 POP SWAP2 SWAP1 POP JUMP JUMPDEST PUSH32 0x4E6F6E2D6379636C696320617574686F72697A6174696F6E0000000000000000 PUSH0 DUP3 ADD MSTORE POP JUMP JUMPDEST PUSH0 PUSH2 0xFDC PUSH1 0x18 DUP4 PUSH2 0xCDD JUMP JUMPDEST SWAP2 POP PUSH2 0xFE7 DUP3 PUSH2 0xFA8 JUMP JUMPDEST PUSH1 0x20 DUP3 ADD SWAP1 POP SWAP2 SWAP1 POP JUMP JUMPDEST PUSH0 PUSH1 0x20 DUP3 ADD SWAP1 POP DUP2 DUP2 SUB PUSH0 DUP4 ADD MSTORE PUSH2 0x1009 DUP2 PUSH2 0xFD0 JUMP JUMPDEST SWAP1 POP SWAP2 SWAP1 POP JUMP JUMPDEST PUSH32 0x596F7520646F6E27742068617665207065726D697373696F6E2E000000000000 PUSH0 DUP3 ADD MSTORE POP JUMP JUMPDEST PUSH0 PUSH2 0x1044 PUSH1 0x1A DUP4 PUSH2 0xCDD JUMP JUMPDEST SWAP2 POP PUSH2 0x104F DUP3 PUSH2 0x1010 JUMP JUMPDEST PUSH1 0x20 DUP3 ADD SWAP1 POP SWAP2 SWAP1 POP JUMP JUMPDEST PUSH0 PUSH1 0x20 DUP3 ADD SWAP1 POP DUP2 DUP2 SUB PUSH0 DUP4 ADD MSTORE PUSH2 0x1071 DUP2 PUSH2 0x1038 JUMP JUMPDEST SWAP1 POP SWAP2 SWAP1 POP JUMP JUMPDEST PUSH32 0x4E487B7100000000000000000000000000000000000000000000000000000000 PUSH0 MSTORE PUSH1 0x22 PUSH1 0x4 MSTORE PUSH1 0x24 PUSH0 REVERT JUMPDEST PUSH0 PUSH1 0x2 DUP3 DIV SWAP1 POP PUSH1 0x1 DUP3 AND DUP1 PUSH2 0x10BC JUMPI PUSH1 0x7F DUP3 AND SWAP2 POP JUMPDEST PUSH1 0x20 DUP3 LT DUP2 SUB PUSH2 0x10CF JUMPI PUSH2 0x10CE PUSH2 0x1078 JUMP JUMPDEST JUMPDEST POP SWAP2 SWAP1 POP JUMP INVALID LOG2 PUSH5 0x6970667358 0x22 SLT KECCAK256 0xCD STATICCALL 0x29 TIMESTAMP 0x26 0xE7 0x4F SWAP15 DELEGATECALL 0xAA DUP14 0xC2 SHR SWAP10 CODECOPY DELEGATECALL JUMPI 0xCC 0xD9 0xC3 PREVRANDAO BLOBHASH PUSH11 0x55C2306938DDD94D2C6473 PUSH16 0x6C634300081A00330000000000000000 "
		},
		"gasEstimates": {
			"creation": {
				"codeDepositCost": "872600",
				"executionCost": "infinite",
				"totalCost": "infinite"
			},
			"external": {
				"delegate(address)": "infinite",
				"getBoardInfo()": "infinite",
				"host()": "2596",
				"mandate(address[])": "infinite",
				"vote(uint256)": "infinite",
				"voters(address)": "infinite"
			}
		},
		"methodIdentifiers": {
			"delegate(address)": "5c19a95c",
			"getBoardInfo()": "ed34c6ee",
			"host()": "f437bc59",
			"mandate(address[])": "8760c761",
			"vote(uint256)": "0121b93f",
			"voters(address)": "a3ec138d"
		}
	},
	"abi": [
		{
			"inputs": [
				{
					"internalType": "string[]",
					"name": "nameList",
					"type": "string[]"
				}
			],
			"stateMutability": "nonpayable",
			"type": "constructor"
		},
		{
			"anonymous": false,
			"inputs": [
				{
					"indexed": false,
					"internalType": "string",
					"name": "",
					"type": "string"
				}
			],
			"name": "voteSuccess",
			"type": "event"
		},
		{
			"inputs": [
				{
					"internalType": "address",
					"name": "to",
					"type": "address"
				}
			],
			"name": "delegate",
			"outputs": [],
			"stateMutability": "nonpayable",
			"type": "function"
		},
		{
			"inputs": [],
			"name": "getBoardInfo",
			"outputs": [
				{
					"components": [
						{
							"internalType": "string",
							"name": "name",
							"type": "string"
						},
						{
							"internalType": "uint256",
							"name": "totalAmount",
							"type": "uint256"
						}
					],
					"internalType": "struct Vote.Board[]",
					"name": "",
					"type": "tuple[]"
				}
			],
			"stateMutability": "view",
			"type": "function"
		},
		{
			"inputs": [],
			"name": "host",
			"outputs": [
				{
					"internalType": "address",
					"name": "",
					"type": "address"
				}
			],
			"stateMutability": "view",
			"type": "function"
		},
		{
			"inputs": [
				{
					"internalType": "address[]",
					"name": "addressList",
					"type": "address[]"
				}
			],
			"name": "mandate",
			"outputs": [],
			"stateMutability": "nonpayable",
			"type": "function"
		},
		{
			"inputs": [
				{
					"internalType": "uint256",
					"name": "_targetId",
					"type": "uint256"
				}
			],
			"name": "vote",
			"outputs": [],
			"stateMutability": "nonpayable",
			"type": "function"
		},
		{
			"inputs": [
				{
					"internalType": "address",
					"name": "",
					"type": "address"
				}
			],
			"name": "voters",
			"outputs": [
				{
					"internalType": "uint256",
					"name": "amount",
					"type": "uint256"
				},
				{
					"internalType": "bool",
					"name": "isVoded",
					"type": "bool"
				},
				{
					"internalType": "address",
					"name": "delegator",
					"type": "address"
				},
				{
					"internalType": "uint256",
					"name": "targetId",
					"type": "uint256"
				}
			],
			"stateMutability": "view",
			"type": "function"
		}
	]
}