{
  "_format": "hh-sol-artifact-1",
  "contractName": "Vote",
  "sourceName": "contracts/Vote.sol",
  "abi": [
    {
      "inputs": [
        {
          "internalType": "string[]",
          "name": "nameList",
          "type": "string[]"
        }
      ],
      "stateMutability": "nonpayable",
      "type": "constructor"
    },
    {
      "inputs": [],
      "name": "getBoardInfo",
      "outputs": [
        {
          "components": [
            {
              "internalType": "string",
              "name": "name",
              "type": "string"
            },
            {
              "internalType": "uint256",
              "name": "totalAmount",
              "type": "uint256"
            }
          ],
          "internalType": "struct Vote.Board[]",
          "name": "",
          "type": "tuple[]"
        }
      ],
      "stateMutability": "view",
      "type": "function"
    },
    {
      "inputs": [],
      "name": "host",
      "outputs": [
        {
          "internalType": "address",
          "name": "",
          "type": "address"
        }
      ],
      "stateMutability": "view",
      "type": "function"
    }
  ],
  "bytecode": "0x608060405234801561001057600080fd5b50604051610c24380380610c2483398181016040528101906100329190610456565b33600260006101000a81548173ffffffffffffffffffffffffffffffffffffffff021916908373ffffffffffffffffffffffffffffffffffffffff1602179055506001600080600260009054906101000a900473ffffffffffffffffffffffffffffffffffffffff1673ffffffffffffffffffffffffffffffffffffffff1673ffffffffffffffffffffffffffffffffffffffff168152602001908152602001600020600001819055506000806000600260009054906101000a900473ffffffffffffffffffffffffffffffffffffffff1673ffffffffffffffffffffffffffffffffffffffff1673ffffffffffffffffffffffffffffffffffffffff16815260200190815260200160002060010160006101000a81548160ff02191690831515021790555060005b81518110156101f457600060405180604001604052808484815181106101845761018361049f565b5b6020026020010151815260200160008152509050600181908060018154018082558091505060019003906000526020600020906002020160009091909190915060008201518160000190816101d991906106ef565b5060208201518160010155505050808060010191505061015b565b50506107c1565b6000604051905090565b600080fd5b600080fd5b600080fd5b6000601f19601f8301169050919050565b7f4e487b7100000000000000000000000000000000000000000000000000000000600052604160045260246000fd5b61025d82610214565b810181811067ffffffffffffffff8211171561027c5761027b610225565b5b80604052505050565b600061028f6101fb565b905061029b8282610254565b919050565b600067ffffffffffffffff8211156102bb576102ba610225565b5b602082029050602081019050919050565b600080fd5b600080fd5b600067ffffffffffffffff8211156102f1576102f0610225565b5b6102fa82610214565b9050602081019050919050565b60005b8381101561032557808201518184015260208101905061030a565b60008484015250505050565b600061034461033f846102d6565b610285565b9050828152602081018484840111156103605761035f6102d1565b5b61036b848285610307565b509392505050565b600082601f8301126103885761038761020f565b5b8151610398848260208601610331565b91505092915050565b60006103b46103af846102a0565b610285565b905080838252602082019050602084028301858111156103d7576103d66102cc565b5b835b8181101561041e57805167ffffffffffffffff8111156103fc576103fb61020f565b5b8086016104098982610373565b855260208501945050506020810190506103d9565b5050509392505050565b600082601f83011261043d5761043c61020f565b5b815161044d8482602086016103a1565b91505092915050565b60006020828403121561046c5761046b610205565b5b600082015167ffffffffffffffff81111561048a5761048961020a565b5b61049684828501610428565b91505092915050565b7f4e487b7100000000000000000000000000000000000000000000000000000000600052603260045260246000fd5b600081519050919050565b7f4e487b7100000000000000000000000000000000000000000000000000000000600052602260045260246000fd5b6000600282049050600182168061052057607f821691505b602082108103610533576105326104d9565b5b50919050565b60008190508160005260206000209050919050565b60006020601f8301049050919050565b600082821b905092915050565b60006008830261059b7fffffffffffffffffffffffffffffffffffffffffffffffffffffffffffffffff8261055e565b6105a5868361055e565b95508019841693508086168417925050509392505050565b6000819050919050565b6000819050919050565b60006105ec6105e76105e2846105bd565b6105c7565b6105bd565b9050919050565b6000819050919050565b610606836105d1565b61061a610612826105f3565b84845461056b565b825550505050565b600090565b61062f610622565b61063a8184846105fd565b505050565b5b8181101561065e57610653600082610627565b600181019050610640565b5050565b601f8211156106a35761067481610539565b61067d8461054e565b8101602085101561068c578190505b6106a06106988561054e565b83018261063f565b50505b505050565b600082821c905092915050565b60006106c6600019846008026106a8565b1980831691505092915050565b60006106df83836106b5565b9150826002028217905092915050565b6106f8826104ce565b67ffffffffffffffff81111561071157610710610225565b5b61071b8254610508565b610726828285610662565b600060209050601f8311600181146107595760008415610747578287015190505b61075185826106d3565b8655506107b9565b601f19841661076786610539565b60005b8281101561078f5784890151825560018201915060208501945060208101905061076a565b868310156107ac57848901516107a8601f8916826106b5565b8355505b6001600288020188555050505b505050505050565b610454806107d06000396000f3fe608060405234801561001057600080fd5b50600436106100365760003560e01c8063ed34c6ee1461003b578063f437bc5914610059575b600080fd5b610043610077565b6040516100509190610340565b60405180910390f35b610061610172565b60405161006e91906103a3565b60405180910390f35b60606001805480602002602001604051908101604052809291908181526020016000905b8282101561016957838290600052602060002090600202016040518060400160405290816000820180546100ce906103ed565b80601f01602080910402602001604051908101604052809291908181526020018280546100fa906103ed565b80156101475780601f1061011c57610100808354040283529160200191610147565b820191906000526020600020905b81548152906001019060200180831161012a57829003601f168201915b505050505081526020016001820154815250508152602001906001019061009b565b50505050905090565b600260009054906101000a900473ffffffffffffffffffffffffffffffffffffffff1681565b600081519050919050565b600082825260208201905092915050565b6000819050602082019050919050565b600081519050919050565b600082825260208201905092915050565b60005b838110156101fe5780820151818401526020810190506101e3565b60008484015250505050565b6000601f19601f8301169050919050565b6000610226826101c4565b61023081856101cf565b93506102408185602086016101e0565b6102498161020a565b840191505092915050565b6000819050919050565b61026781610254565b82525050565b6000604083016000830151848203600086015261028a828261021b565b915050602083015161029f602086018261025e565b508091505092915050565b60006102b6838361026d565b905092915050565b6000602082019050919050565b60006102d682610198565b6102e081856101a3565b9350836020820285016102f2856101b4565b8060005b8581101561032e578484038952815161030f85826102aa565b945061031a836102be565b925060208a019950506001810190506102f6565b50829750879550505050505092915050565b6000602082019050818103600083015261035a81846102cb565b905092915050565b600073ffffffffffffffffffffffffffffffffffffffff82169050919050565b600061038d82610362565b9050919050565b61039d81610382565b82525050565b60006020820190506103b86000830184610394565b92915050565b7f4e487b7100000000000000000000000000000000000000000000000000000000600052602260045260246000fd5b6000600282049050600182168061040557607f821691505b602082108103610418576104176103be565b5b5091905056fea2646970667358221220c3e8b12a6bcdc35affdb4c9e9113b97d7bf38e59a4ba282386211a38c6bf71ee64736f6c634300081c0033",
  "linkReferences": {},
  "deployedLinkReferences": {}
}